:100000000C942A000C9447000C9447000C94470071
:100010000C9447000C9447000C9447000C94470044
:100020000C9447000C9447000C9447000C94470034
:100030000C9447000C9447000C9447000C94470024
:100040000C9447000C9447000C9447000C94470014
:100050000C94470011241FBECFE5D8E0DEBFCDBF12
:1000600011E0A0E6B0E0E2E4FBE202C005900D92F0
:10007000A43AB107D9F711E0A4EAB1E001C01D929A
:10008000A53AB107E1F70E94AD0D0C949F150C94B1
:100090000000EF92FF920F93DF93CF93CDB7DEB7BF
:1000A00060970FB6F894DEBF0FBECDBFA82F002318
:1000B00009F461C07E010894E11CF11C88E0F7019D
:1000C00011928A95E9F729833A834B835C836D8388
:1000D0007E83AF83988780E2801BE82FFF27E7FDB0
:1000E000F09549815A816B817C81181684F01986BC
:1000F0001A861B861C86882799278E1B9F0B04C097
:10010000440F551F661F771F8A95D2F728C0202FEE
:10011000332727FD3095DB01CA01022E04C0880F6A
:10012000991FAA1FBB1F0A94D2F789879A87AB87AA
:10013000BC8704C07695679557954795EA95D2F7A1
:100140008D819E81AF81B88504C0880F991FAA1F39
:10015000BB1F2A95D2F7482B592B6A2B7B2B4D8737
:100160005E876F87788B29853A854B855C856D85A1
:100170007E85AF8598898A2F60960FB6F894DEBF8A
:100180000FBECDBFCF91DF910F91FF90EF900895FB
:10019000AEE5B0E0EEECF0E00C946815A8E04E019E
:1001A0000894811C911CF4016A2E11926A94E9F75B
:1001B00029833A834B835C836D837E838F83988707
:1001C000CE010996FC011192AA95E9F7A986BA8693
:1001D000CB86DC86ED86FE860F87188B29843A84D1
:1001E0004B845C84ED84FE840F85188969807A8055
:1001F0008B809C806DA67EA68FA698AA6D807E803F
:100200008F809884E114F1040105110509F0B3C34E
:10021000621473048404950408F03DC100E02016C4
:1002200000E0300601E0400600E0500688F41FEFD1
:10023000211631044104510439F030F048E0E42E35
:10024000F12C012D112D18C0EE24FF24870114C0BC
:1002500020E0221620E0320620E0420621E052068D
:1002600030F038E1E32EF12C012D112D05C020E1F5
:10027000E22EF12C012D112DD201C1010E2C04C052
:10028000B695A795979587950A94D2F78F589F4F63
:10029000DC012C9180E290E0A0E0B0E08E199F0993
:1002A000A00BB10B7C018D01E21AF10801091109C3
:1002B000E114F10401051105A1F10E2C04C0220C7A
:1002C000331C441C551C0A94D2F7A40193010E2C34
:1002D00004C0220F331F441F551F0A94D2F780E237
:1002E00090E08E199F096DA47EA48FA498A804C0E5
:1002F00096948794779467948A95D2F7622A732AA2
:10030000842A952AADA4BEA4CFA4D8A804C0AA0C60
:10031000BB1CCC1CDD1CEA94D2F7ADA6BEA6CFA6B2
:10032000D8AA6201EE24FF24CDAADEAAEFAAF8AE75
:10033000920181012070307009AF1AAF2BAF3CAF32
:10034000C401B301A70196010E9446157B018C01EF
:10035000C401B3012DA93EA94FA958AD0E9446156D
:10036000C901DA013C014D01C401B30129AD3AAD27
:100370004BAD5CAD0E9427159B01AC018701FF24AA
:10038000EE24ADA4BEA4CFA4D8A8C601AA27BB273B
:1003900057016801A82AB92ACA2ADB2AA216B3067D
:1003A000C406D506E0F40894610871088108910834
:1003B000A20CB31CC41CD51CA214B304C404D504E1
:1003C00070F0A216B306C406D50648F40894610876
:1003D000710881089108A20CB31CC41CD51CA21A78
:1003E000B30AC40AD50AC601B5012DA93EA94FA971
:1003F00058AD0E9446157B018C01C601B5012DA99F
:100400003EA94FA958AD0E944615C901DA015C0109
:100410006D01C601B50129AD3AAD4BAD5CAD0E9491
:1004200027159B01AC018701FF24EE248DA59EA515
:10043000AFA5B8A9A070B070E82AF92A0A2B1B2B27
:10044000E216F30604071507C0F40894A108B108E2
:10045000C108D108E20CF31C041D151DE214F304BD
:100460000405150550F0E216F3060407150728F4F5
:100470000894A108B108C108D108D3019927882799
:1004800086017501E82AF92A0A2B1B2BE9AAFAAA88
:100490000BAB1CABCFC4211431044104510471F4E3
:1004A00061E070E080E090E020E030E040E050E08B
:1004B0000E944615C901DA011C012D0100E0201639
:1004C00000E0300601E0400600E0500688F41FEF2F
:1004D000211631044104510431F028F048E050E085
:1004E00060E070E017C040E050E060E070E012C0F3
:1004F00020E0221620E0320620E0420621E05206EB
:1005000028F048E150E060E070E004C040E150E0D5
:1005100060E070E0D201C101042E04C0B695A79539
:10052000979587950A94D2F78F589F4FDC012C91AD
:10053000E0E2EE2EF12C012D112DD801C701841B14
:10054000950BA60BB70B821B9109A109B109009766
:10055000A105B10561F464015301A218B308C408F0
:10056000D50831E0632E712C812C912C1EC16F9621
:100570008FAF6F97082E04C0220C331C441C551CEF
:100580000A94D2F7EE2DE81B640153010E2E04C02D
:10059000D694C794B794A7940A94D2F7A401930170
:1005A0006F960FAC6F9704C0220F331F441F551F67
:1005B0000A94D2F76DA47EA48FA498A80E2E04C02E
:1005C00096948794779467940A94D2F78401730180
:1005D000E22AF32A042B152BE9A6FAA60BA71CA7DF
:1005E0003201882499249201810120703070219673
:1005F0000CAF1DAF2EAF3FAF2197C601B501A401CF
:1006000093010E9446157B018C01C601B501A4012E
:1006100093010E944615C901DA0125968CAF9DAF62
:10062000AEAFBFAF2597BC01CD0121962CAD3DAD3E
:100630004EAD5FAD21970E9427159B01AC0187014C
:10064000FF24EE24A9A4BAA4CBA4DCA4C601AA2743
:10065000BB275C016D01AE28BF28C02AD12AA21693
:10066000B306C406D50660F525966CAD7DAD8EAD9E
:100670009FAD2597615070408040904025966CAFAB
:100680007DAF8EAF9FAF2597A20CB31CC41CD51CA9
:10069000A214B304C404D50498F0A216B306C40689
:1006A000D50670F4615070408040904025966CAF44
:1006B0007DAF8EAF9FAF2597A20CB31CC41CD51C79
:1006C000A21AB30AC40AD50AC601B501A40193014E
:1006D0000E9446157B018C01C601B501A40193015E
:1006E0000E944615C901DA013C014D01C401B30164
:1006F00021962CAD3DAD4EAD5FAD21970E942715E3
:100700009B01AC018701FF24EE2489A59AA5ABA526
:10071000BCA5A070B07057016801A82AB92ACA2ADE
:10072000DB2AA216B306C406D506E0F408946108D5
:10073000710881089108A20CB31CC41CD51CA2141A
:10074000B304C404D50470F0A216B306C406D506DB
:1007500048F408946108710881089108A20CB31C40
:10076000C41CD51C8DA59EA5AFA5B8A96F960FACCE
:100770006F9704C0880F991FAA1FBB1F0A94D2F756
:100780008DA79EA7AFA7B8ABA21AB30AC40AD50A11
:100790002596ECACFDAC0EAD1FAD2597D701992782
:1007A0008827682A792A8A2A9B2A820122273327C6
:1007B00029960CAF1DAF2EAF3FAF2997A201910133
:1007C000407050702D962CAF3DAF4EAF5FAF2D9760
:1007D000C601B50129962CAD3DAD4EAD5FAD299753
:1007E0000E9446157B018C01C601B50129962CADEE
:1007F0003DAD4EAD5FAD29970E944615C901DA01A6
:1008000061968CAF9DAFAEAFBFAF6197BC01CD011C
:100810002D962CAD3DAD4EAD5FAD2D970E942715A9
:100820009B01AC018701FF24EE24ADA4BEA4CFA49C
:10083000D8A8C601AA27BB2757016801A82AB92A48
:10084000CA2ADB2AA216B306C406D50660F561964D
:100850006CAD7DAD8EAD9FAD6197615070408040B5
:10086000904061966CAF7DAF8EAF9FAF6197A20C49
:10087000B31CC41CD51CA214B304C404D50498F042
:10088000A216B306C406D50670F4615070408040CD
:10089000904061966CAF7DAF8EAF9FAF6197A20C19
:1008A000B31CC41CD51CA21AB30AC40AD50AC601BB
:1008B000B50129962CAD3DAD4EAD5FAD29970E9497
:1008C00046157B018C01C601B50129962CAD3DADC5
:1008D0004EAD5FAD29970E944615C901DA015C0152
:1008E0006D01C601B5012D962CAD3DAD4EAD5FAD90
:1008F0002D970E9427159B01AC018701FF24EE2450
:100900008DA59EA5AFA5B8A9A070B070E82AF92A58
:100910000A2B1B2BE216F30604071507C0F40894F4
:10092000A108B108C108D108E20CF31C041D151D73
:10093000E214F3040405150550F0E216F30604076B
:10094000150728F40894A108B108C108D1086196D8
:10095000ECACFDAC0EAD1FAD6197D7019927882790
:1009600096018501082B192B2A2B3B2B09AB1AABBF
:100970002BAB3CAB62C26E147F048006910608F478
:1009800051C220E0E21620E0F20621E0020720E05A
:10099000120788F43FEFE316F1040105110531F069
:1009A00028F048E050E060E070E017C040E050E020
:1009B00060E070E012C040E0E41640E0F40640E081
:1009C000040741E0140728F048E150E060E070E0DF
:1009D00004C040E150E060E070E0D801C701042E9F
:1009E00004C0B695A795979587950A94D2F78F5826
:1009F0009F4FDC012C9130E2A32EB12CC12CD12CC5
:100A0000D601C501841B950BA60BB70B821B910960
:100A1000A109B1090097A105B10589F4E614F7040D
:100A20000805190508F4F2C16DA47EA48FA498A846
:100A3000621473048404950408F0E8C1F3C16E964F
:100A40008FAF6E97082E04C0EE0CFF1C001F111F05
:100A50000A94D2F76A2D681BD201C101062E04C088
:100A6000B695A795979587950A94D2F75C016D0185
:100A7000AE28BF28C02AD12AADA2BEA2CFA2D8A636
:100A8000720161016E960FAC6E9704C0CC0CDD1C38
:100A9000EE1CFF1C0A94D2F7C9A2DAA2EBA2FCA2B8
:100AA00064015301062E04C0D694C794B794A7944A
:100AB0000A94D2F7D401C3016E960FAC6E9704C0AE
:100AC000880F991FAA1FBB1F0A94D2F7EDA4FEA49A
:100AD0000FA518A904C016950795F794E7946A9591
:100AE000D2F737014801682A792A8A2A9B2A6D8E13
:100AF0007E8E8F8E98A2EDA0FEA00FA118A53801C2
:100B000088249924980187012070307065960CAF75
:100B10001DAF2EAF3FAF6597C601B501A40193018C
:100B20000E9446157B018C01C601B501A401930109
:100B30000E944615C901DA011C012D01C201B10153
:100B400065962CAD3DAD4EAD5FAD65970E94271506
:100B50009B01AC018701FF24EE24AD8CBE8CCF8CB1
:100B6000D8A0C601AA27BB2757016801A82AB92A1D
:100B7000CA2ADB2AA216B306C406D50600F50894D5
:100B80002108310841085108EDA0FEA00FA118A5C9
:100B9000AE0CBF1CC01ED11EAE14BF04C006D106D1
:100BA00070F0A216B306C406D50648F408942108CE
:100BB000310841085108AE0CBF1CC01ED11EA21A3C
:100BC000B30AC40AD50AC601B501A40193010E9463
:100BD00046157B018C01C601B501A40193010E9459
:100BE0004615C901DA013C014D01C401B301659606
:100BF0002CAD3DAD4EAD5FAD65970E9427159B01B5
:100C0000AC018701FF24EE248D8D9E8DAF8DB8A1A0
:100C1000A070B07057016801A82AB92ACA2ADB2A35
:100C2000A216B306C406D50600F50894610871083B
:100C3000810891086DA17EA18FA198A5A60EB71E6F
:100C4000C81ED91EA616B706C806D90670F0A21689
:100C5000B306C406D50648F40894610871088108F3
:100C60009108A60EB71EC81ED91ED601C501821B4B
:100C7000930BA40BB50B898F9A8FAB8FBC8FD101CF
:100C80009927882764015301A82AB92ACA2ADB2A8E
:100C9000A9AABAAACBAADCAA860175012FEF3FEF59
:100CA00040E050E0E222F32204231523A601662748
:100CB00077276D964CAF5DAF6EAF7FAF6D97A9A0F4
:100CC000BAA0CBA0DCA06FEF7FEF80E090E0A6227F
:100CD000B722C822D92289A19AA1ABA1BCA11D012A
:100CE00044245524C801B701A60195010E94271587
:100CF00069966CAF7DAF8EAF9FAF6997C801B701A2
:100D0000A20191010E9427153B014C016D966CAD2B
:100D10007DAD8EAD9FAD6D97A60195010E94271503
:100D20007B018C016D966CAD7DAD8EAD9FAD6D97E9
:100D3000A20191010E9427155B016C01A801970196
:100D4000260D371D481D591D69966CAC7DAC8EACC7
:100D50009FAC6997C401AA27BB27280F391F4A1FD8
:100D60005B1F2E153F054007510748F4E12CF12C7D
:100D700061E0062F112DAE0CBF1CC01ED11ECA0192
:100D8000AA27BB27BC01CD016A0D7B1D8C1D9D1DB3
:100D9000698C7A8C8B8C9C8C6616770688069906F3
:100DA00040F1661577058805990509F043C0D9011A
:100DB0009927882769962CAD3DAD4EAD5FAD6997FB
:100DC00040705070820F931FA41FB51F2DA53EA524
:100DD0004FA558A96E960FAC6E9704C0220F331F13
:100DE000441F551F0A94D2F7281739074A075B0793
:100DF00008F509A91AA92BA93CA9015010402040C7
:100E0000304009AB1AAB2BAB3CAB14C06624772443
:100E1000430121E030E040E050E029AB3AAB4BAB7E
:100E20005CAB0BC066247724430119AA1AAA1BAA3B
:100E30001CAA03C0662477244301FE01719688E052
:100E4000DF011D928A95E9F7A9A8BAA8CBA8DCA86A
:100E5000A98ABA8ACB8ADC8A6D8A7E8A8F8A988E22
:100E600029A93A894B895C89662D7E898F89988D5D
:100E7000C25ADF4FE2E10C948415ABE5B0E0E3E445
:100E8000F7E00C946815A8E04E010894811C911CB1
:100E9000F4016A2E11926A94E9F729833A834B830D
:100EA0005C836D837E838F839887CE010996FC01D6
:100EB0001192AA95E9F7A986BA86CB86DC86ED86DB
:100EC000FE860F87188B29843A844B845C84AD841A
:100ED000BE84CF84D88829813A814B815C81699610
:100EE0002FAF69976A963FAF6A976B964FAF6B9734
:100EF0006C965FAF6C976C966CAC7DAC8EAC9FAC17
:100F00006C9769AA7AAA8BAA9CAA6D817E818F812F
:100F100098853B014C016DAA7EAA8FAA98AEA114B8
:100F2000B104C104D10409F004C36214730484043D
:100F3000950408F000C100E0201600E0300601E052
:100F4000400600E0500688F41FEF211631044104EA
:100F5000510439F030F088E0E82EF12C012D112DEC
:100F600018C0EE24FF24870114C040E0241640E09E
:100F7000340640E0440641E0540630F0B8E1EB2E80
:100F8000F12C012D112D05C0A0E1EA2EF12C012D2F
:100F9000112DD201C1010E2C04C0B695A7959795CD
:100FA00087950A94D2F78F589F4FDC012C9180E2ED
:100FB00090E0A0E0B0E08E199F09A00BB10B5C019E
:100FC0006D01A21AB108C108D108A9AEBAAECBAE64
:100FD000DCAEA114B104C104D10409F43FC069AD71
:100FE000062E04C0220C331C441C551C0A94D2F754
:100FF000A4019301062E04C0220F331F441F551F66
:101000000A94D2F780E290E08A199B096C96CCACE6
:10101000DDACEEACFFAC6C9704C0F694E794D794CB
:10102000C7948A95D2F787017601E22AF32A042B26
:10103000152BEDAAFEAA0FAB18AF6C968CAD9DAD2B
:10104000AEADBFAD6C9704C0880F991FAA1FBB1F20
:101050006A95D2F789AB9AABABABBCAB32018824B3
:101060009924B201A1016070707021964CAF5DAF00
:101070006EAF7FAF21976DA97EA98FA998ADA4010E
:1010800093010E9446157B018C016DA97EA98FA951
:1010900098ADA40193010E944615CA01B901219699
:1010A0002CAD3DAD4EAD5FAD21970E9427159B0144
:1010B000AC018701FF24EE24A9A8BAA8CBA8DCA81C
:1010C000C601AA27BB2757016801A82AB92ACA2A3C
:1010D000DB2AA216B306C406D50690F4A20CB31CF4
:1010E000C41CD51CA214B304C404D50448F0A21631
:1010F000B306C406D50620F4A20CB31CC41CD51C30
:10110000A21AB30AC40AD50AC601B501A401930103
:101110000E9446157B018C01C601B501A401930113
:101120000E944615CA01B90121962CAD3DAD4EADC8
:101130005FAD2197BAC1211431044104510471F407
:1011400061E070E080E090E020E030E040E050E0DE
:101150000E944615C901DA011C012D0100E020168C
:1011600000E0300601E0400600E0500688F41FEF82
:10117000211631044104510439F030F068E0E62EC4
:10118000F12C012D112D18C0EE24FF24870114C06D
:1011900040E0241640E0340640E0440641E05406B6
:1011A00030F058E1E52EF12C012D112D05C040E164
:1011B000E42EF12C012D112DD201C1010E2C04C001
:1011C000B695A795979587950A94D2F78F589F4F14
:1011D000DC012C9130E2A32EB12CC12CD12CD601F4
:1011E000C5018E199F09A00BB10B7C018D01E21A7C
:1011F000F10801091109E9AEFAAE0BAF1CAFE11419
:10120000F1040105110539F464015301A218B30872
:10121000C408D508E2C0F9AC6896FFAE68970F2CF9
:1012200004C0220C331C441C551C0A94D2F78A2D8E
:101230008F1964015301082E04C0D694C794B79443
:10124000A7940A94D2F7A401930104C0220F331F7C
:10125000441F551FFA94D2F76C966CAC7DAC8EACE3
:101260009FAC6C9704C096948794779467948A9502
:10127000D2F784017301E22AF32A042B152BEDA681
:10128000FEA60FA718AB320188249924B201A10150
:101290006070707025964CAF5DAF6EAF7FAF2597D5
:1012A000C601B501A40193010E9446157B018C0182
:1012B000C601B501A40193010E944615CA01B901F6
:1012C00025962CAD3DAD4EAD5FAD25970E942715FF
:1012D0009B01AC018701FF24EE24ADA4BEA4CFA4E2
:1012E000D8A8C601AA27BB275C016D01AE28BF287C
:1012F000C02AD12AA216B306C406D50690F4A20CC1
:10130000B31CC41CD51CA214B304C404D50448F0F7
:10131000A216B306C406D50620F4A20CB31CC41C46
:10132000D51CA21AB30AC40AD50AC601B501A40184
:1013300093010E9446157B018C01C601B501A401F1
:1013400093010E944615CA01B90125962CAD3DAD09
:101350004EAD5FAD25970E9427159B01AC0187011B
:10136000FF24EE248DA59EA5AFA5B8A9A070B070EE
:1013700057016801A82AB92ACA2ADB2AA216B3068D
:10138000C406D50690F4A20CB31CC41CD51CA21430
:10139000B304C404D50448F0A216B306C406D506A7
:1013A00020F4A20CB31CC41CD51C6C96ECACFDAC98
:1013B0000EAD1FAD6C9768960FAC689704C0EE0C2D
:1013C000FF1C001F111F0A94D2F7E9AAFAAA0BAB5F
:1013D0001CABA21AB30AC40AD50A32018824992484
:1013E000B201A1016070707029964CAF5DAF6EAF15
:1013F0007FAF2997C601B501A40193010E9446154C
:101400007B018C01C601B501A40193010E94461520
:10141000CA01B90129962CAD3DAD4EAD5FAD2997FE
:101420000E9427159B01AC018701FF24EE24A9A887
:10143000BAA8CBA8DCA8C601AA27BB275701680118
:10144000A82AB92ACA2ADB2AA216B306C406D506D8
:1014500090F4A20CB31CC41CD51CA214B304C40485
:10146000D50448F0A216B306C406D50620F4A20C93
:10147000B31CC41CD51CA21AB30AC40AD50AC601DF
:10148000B501A40193010E9446157B018C01C601A0
:10149000B501A40193010E944615CA01B90129961C
:1014A0002CAD3DAD4EAD5FAD29970E9427159B0138
:1014B000AC018701FF24EE2489A99AA9ABA9BCA994
:1014C000A070B070E82AF92A0A2B1B2BE216F3064B
:1014D0000407150790F4E20CF31C041D151DE2141B
:1014E000F3040405150548F0E216F3060407150792
:1014F00020F4E20CF31C041D151DE21AF30A040B80
:10150000150BD801C70109AC04C0B695A7959795EE
:1015100087950A94D2F7898B9A8BAB8BBC8B1D8AEB
:101520001E8A1F8A188E282F3A894B895C896D89FB
:101530000CC36A147B048C049D0408F409C300E006
:10154000A01600E0B00601E0C00600E0D00688F476
:101550001FEFA116B104C104D10439F030F028E026
:10156000E22EF12C012D112D18C0EE24FF2487014D
:1015700014C040E0A41640E0B40640E0C40641E0D8
:10158000D40630F098E1E92EF12C012D112D05C083
:1015900080E1E82EF12C012D112DD601C5010E2C74
:1015A00004C0B695A795979587950A94D2F78F585A
:1015B0009F4FDC012C9180E290E0A0E0B0E08E191A
:1015C0009F09A00BB10B821B9109A109B1090097DA
:1015D000A105B10509F04FC0A614B704C804D90489
:1015E00058F06C96ECACFDAC0EAD1FAD6C97E214F0
:1015F000F3040405150568F16C96ECACFDAC0EAD7A
:101600001FAD6C97E218F30804091509A4019301B2
:101610002A193B094C095D09AA24BB2465016C9673
:101620006CAD7DAD8EAD9FAD6C976E157F0580075F
:10163000910728F4B1E0AB2EB12CC12CD12CDA01EA
:10164000C9018A199B09AC09BD098DAB9EABAFAB33
:10165000B8AFE98AFA8A0B8B1C8B6DA87EA88FA87D
:1016600098AC6D8A7E8A8F8A988E2E2D3A894B8906
:101670005C896DA96AC267968FAF6797A6019501CD
:10168000082E04C0220F331F441F551F0A94D2F79F
:10169000A0E2AA2EA81A6696AFAE6697D201C10143
:1016A00004C0B695A79597958795AA94D2F76C0133
:1016B0007D01C22AD32AE42AF52AC9A6DAA6EBA616
:1016C000FCA68201710167960FAC679704C0EE0C0F
:1016D000FF1C001F111F0A94D2F7EDA2FEA20FA358
:1016E00018A76401530166960FAC669704C0D694A0
:1016F000C794B794A7940A94D2F7A401930167966C
:101700000FAC679704C0220F331F441F551F0A9464
:10171000D2F76C968CAD9DADAEADBFAD6C976696B5
:101720000FAC669704C0B695A795979587950A94D0
:10173000D2F73C014D01622A732A842A952A69A2B4
:101740007AA28BA29CA26C96ECACFDAC0EAD1FAD48
:101750006C9767960FAC679704C0EE0CFF1C001FD8
:10176000111F0A94D2F7ED8EFE8E0F8F18A349A594
:101770005AA56BA57CA53B018824992460707070E4
:101780002D964CAF5DAF6EAF7FAF2D97C601B50103
:10179000A40193010E9446157B018C01C601B5018D
:1017A000A40193010E944615C901DA011C012D0113
:1017B000C201B1012D962CAD3DAD4EAD5FAD2D9763
:1017C0000E9427159B01AC018701FF24EE24A9A0EC
:1017D000BAA0CBA0DCA0C601AA27BB27570168018D
:1017E000A82AB92ACA2ADB2AA216B306C406D50635
:1017F00000F508942108310841085108E9A4FAA429
:101800000BA51CA5AE0CBF1CC01ED11EAE14BF0480
:10181000C006D10670F0A216B306C406D50648F479
:1018200008942108310841085108AE0CBF1CC01EA5
:10183000D11EA21AB30AC40AD50AC601B501A40171
:1018400093010E9446157B018C01C601B501A401DC
:1018500093010E944615C901DA013C014D01C40102
:10186000B3012D962CAD3DAD4EAD5FAD2D970E94D1
:1018700027159B01AC018701FF24EE2489A19AA1C1
:10188000ABA1BCA1A070B07057016801A82AB92A09
:10189000CA2ADB2AA216B306C406D50600F50894A8
:1018A000610871088108910869A57AA58BA59CA596
:1018B000A60EB71EC81ED91EA616B706C806D9069C
:1018C00070F0A216B306C406D50648F40894610861
:1018D000710881089108A60EB71EC81ED91ED60130
:1018E000C501821B930BA40BB50B898F9A8FAB8F0D
:1018F000BC8FD1019927882784017301E82AF92A2E
:101900000A2B1B2B4FEFA42E4FEFB42EC12CD12C42
:10191000AE20BF20C022D1227801002711276DA060
:101920007EA08FA098A44FEF5FEF60E070E064228C
:101930007522862297228DA19EA1AFA1B8A5BD01D7
:101940008827992765966CAF7DAF8EAF9FAF65975F
:10195000C601B501A40193010E94271561966CAFE1
:101960007DAF8EAF9FAF6197C601B50165962CAD77
:101970003DAD4EAD5FAD65970E9427151B012C0153
:10198000C801B701A40193010E9427155B016C01F6
:10199000C801B70165962CAD3DAD4EAD5FAD659705
:1019A0000E9427157B018C01A6019501220D331D94
:1019B000441D551D61966CAC7DAC8EAC9FAC61979F
:1019C000C401AA27BB27280F391F4A1F5B1F2A15EE
:1019D0003B054C055D0548F4812C912CE1E0AE2ED1
:1019E000B12CE80CF91C0A1D1B1DCA01AA27BB2734
:1019F00057016801A80EB91ECA1EDB1EA9013327B4
:101A0000222761968CAD9DADAEADBFAD6197A07044
:101A1000B070280F391F4A1F5B1FE98CFA8C0B8DA1
:101A20001C8DEA14FB040C051D0570F0AE14BF04F8
:101A3000C006D10669F56D8D7E8D8F8D98A16217D8
:101A400073078407950720F5DA01C9016DA07EA010
:101A50008FA098A486199709A809B909E9A4FAA43E
:101A60000BA51CA5AE18BF08C00AD10AEE24FF249E
:101A70008701281739074A075B0728F421E0E22E7F
:101A8000F12C012D112DAE18BF08C00AD10A02C0D9
:101A9000DA01C9016D8C7E8C8F8C98A0681A790A46
:101AA0008A0A9B0A498D5A8D6B8D7C8D4A195B0978
:101AB0006C097D095A016B012224332421016D8DAB
:101AC0007E8D8F8D98A1661577058805990528F478
:101AD00081E0282E312C412C512C86017501E21811
:101AE000F30804091509A801970166960FAC6697DB
:101AF00004C0220F331F441F551F0A94D2F7D4018C
:101B0000C30167960FAC679704C0B695A7959795E4
:101B100087950A94D2F7282B392B4A2B5B2B298BDC
:101B20003A8B4B8B5C8B67960FAC679704C016950E
:101B30000795F794E7940A94D2F7ED8AFE8A0F8B03
:101B4000188F3A894B895C896E2D7E898F89988D93
:101B5000C55ADF4FE2E10C948415CF92DF92EF92E9
:101B6000FF921F93DF93CF93CDB7DEB72C970FB6BD
:101B7000F894DEBF0FBECDBF0E94A6120E94531084
:101B8000DE011196E1E7F1E08CE001900D928150C9
:101B9000E1F76E010894C11CD11C88ECE82EF12CF1
:101BA000C6010E94670F182F8823D1F381E060E0FF
:101BB0000E94A510212F30E040E050E060E070E08E
:101BC00080E090E00E94F01088EE93E0F7013197FA
:101BD000F1F70197D9F70E949D10E2CF382F883096
:101BE000B8F42AB381E090E0032E02C0880F991F59
:101BF0000A94E2F7809582238ABB2AB3862F90E06D
:101C000002C0880F991F3A95E2F7282B2ABB089546
:101C100088508830D8F447B3232F30E027703070D5
:101C200081E090E0022E02C0880F991F0A94E2F72B
:101C30008095842387BB47B3862F90E002C0880F2E
:101C4000991F2A95E2F7482B47BB0895832F8051AF
:101C50008830D8F444B3232F30E02770307081E00F
:101C600090E0022E02C0880F991F0A94E2F7809537
:101C7000842384BB44B3862F90E002C0880F991F51
:101C80002A95E2F7482B44BB0895832F885188306A
:101C9000D0F441B3232F30E02770307081E090E022
:101CA000022E02C0880F991F0A94E2F780958423C0
:101CB00081BB41B3862F90E002C0880F991F2A95FF
:101CC000E2F7482B41BB0895382F8830B8F42BB386
:101CD00081E090E0032E02C0880F991F0A94E2F77A
:101CE000809582238BBB2BB3862F90E002C0880F98
:101CF000991F3A95E2F7282B2BBB0895885088301E
:101D0000D8F448B3232F30E02770307081E090E0A2
:101D1000022E02C0880F991F0A94E2F7809584234F
:101D200088BB48B3862F90E002C0880F991F2A9580
:101D3000E2F7482B48BB0895832F80518830D8F4B0
:101D400045B3232F30E02770307081E090E0022E01
:101D500002C0880F991F0A94E2F78095842385BBFF
:101D600045B3862F90E002C0880F991F2A95E2F7AD
:101D7000482B45BB0895832F88518830D0F442B357
:101D8000232F30E02770307081E090E0022E02C0F7
:101D9000880F991F0A94E2F78095842382BB42B38F
:101DA000862F90E002C0880F991F2A95E2F7482BF2
:101DB00042BB0895582F883090F429B381E090E019
:101DC000052E02C0880F991F0A94E2F730E08223A3
:101DD000932302C0959587955A95E2F70895885008
:101DE000883010F446B305C0852F80518830B0F498
:101DF00043B3252F30E02770307081E090E0022E51
:101E000002C0880F991F0A94E2F750E084239523BB
:101E100002C0959587952A95E2F70895852F8851F8
:101E2000883010F08FEF089540B3252F30E02770F1
:101E3000307081E090E0022E02C0880F991F0A9452
:101E4000E2F750E08423952302C0959587952A9563
:101E5000E2F70895813261F0823218F4803269F439
:101E600005C0823239F0833241F406C06ABB08955E
:101E700067BB089564BB089561BB0895813261F02A
:101E8000823218F4803269F405C0823239F083322C
:101E900041F406C06BBB089568BB089565BB089507
:101EA00062BB0895813269F0823218F4803229F4DD
:101EB00006C0823241F0833241F080E0089589B358
:101EC000089586B3089583B3089580B308952F923B
:101ED0003F924F925F926F927F928F929F92AF92BA
:101EE000BF92CF92DF92EF92FF920F931F93DF93F7
:101EF000CF93CDB7DEB728970FB6F894DEBF0FBEED
:101F0000CDBF3C0119821A821B821C8284E18D8321
:101F100085E18E8386E18F8387E188878824CC24BE
:101F2000DD2420E6222E2AEE322E99E0492E512C75
:101F30004C0E5D1E81E0C81609F1C81638F092E01B
:101F4000C91619F1E3E0CE1669F42AC083E160E016
:101F50000E94640E82E161E00E94640E81E161E012
:101F60000E94640E85E0E82EF12CEC0EFD1E8E0121
:101F70000F5F1F4F5301AC0CBD1C15C083E161E026
:101F80000E94640E82E160E0E7CF83E161E00E949D
:101F9000640E82E161E00E94640E81E160E0E0CFC6
:101FA00083E161E0D5CFF7019080892D0E94DA0EA0
:101FB0008823A9F4C1010197F1F7892D0E94DA0E57
:101FC000882349F4F8018081882349F481E08083E3
:101FD000F501808004C0813011F4F801108208946A
:101FE000E11CF11C0F5F1F4F84E090E0A80EB91EAA
:101FF000E414F504C1F60894C11CD11C93E0C91681
:10200000D10409F097CF882D28960FB6F894DEBF3B
:102010000FBECDBFCF91DF911F910F91FF90EF9039
:10202000DF90CF90BF90AF909F908F907F906F90F8
:102030005F904F903F902F9008951F93182F83E14A
:1020400061E00E94640E82E161E00E94640E81E121
:1020500061E00E94640E812F63E00E941B15E92F4E
:10206000F0E0EF57FE4F808160E00E94640E16950D
:102070001695E12FF0E0E358FE4F1081812F0E946A
:10208000DA0E882311F090E00BC080E29EE4019705
:10209000F1F7812F0E94DA0E90E0882309F491E095
:1020A000892F1F91089584E160E00E94EE0D84E184
:1020B00061E00E94640E85E160E00E94EE0D85E122
:1020C00061E00E94640E86E160E00E94EE0D86E110
:1020D00061E00E94640E87E160E00E94EE0D87E1FE
:1020E00061E00E94640E83E161E00E94EE0D82E1F6
:1020F00061E00E94EE0D81E161E00E94EE0D089525
:10210000682F81E20E943E0F88E160E00E94640E29
:1021100089E160E00E94640E8AE161E00E94640E41
:1021200080ED97E00197F1F78AE160E00E94640E8C
:1021300080EA9FE00197F1F7089581E00E94801006
:1021400080EA9FE00197F1F70895813039F460311A
:1021500068F4862F80580E9480100895823031F4F0
:10216000603120F4862F80540E9480100895682FDB
:1021700081E20E943E0F88E161E00E94640E89E1E5
:1021800060E00E94640E8AE161E00E94640E80EDCE
:1021900097E00197F1F78AE160E00E94640E80EA1F
:1021A0009FE00197F1F708950F931F93CF93DF936B
:1021B0008B01880F880F880F805C0E948010C0E020
:1021C000D0E0F801EC0FFD1F80810E94B71021962E
:1021D000C830D105B1F7DF91CF911F910F910895CC
:1021E0002F923F924F925F926F927F928F929F9227
:1021F000AF92BF92CF92DF92EF92FF920F931F9315
:10220000DF93CF93CDB7DEB729970FB6F894DEBF33
:102210000FBECDBF2A833B834C835D836E837F8358
:1022200088879987822F832B842B852B862B872B5E
:102230009885892BE9858E2B19F480E30E94B710CD
:102240002224239433244424552466247724882488
:102250009924E9C09101A201B301C40101E00E94E7
:102260004900122FF32EE42ED52EC62EB72EA82EFF
:10227000292E02E00E944900922E910E21E0911633
:1022800008F020E03F0DE1E03F1508F0E0E0822E8D
:10229000830E21E0831608F020E0E22B4E0D31E0A2
:1022A0004E1508F030E07E2E740E21E0741608F012
:1022B00020E0322B5D0D41E05D1508F040E0632E1B
:1022C000650E21E0651608F020E0422B6C0D31E030
:1022D0006C1508F030E0542E560E21E0561608F02A
:1022E00020E0322B7B0D41E07B1508F040E0432ECF
:1022F000470E21E0471608F020E0422B8A0D31E01E
:102300008A1508F030E0342E380E21E0381608F037
:1023100020E0322B920DF32FF90FF9832A813B81B4
:102320004C815D816E817F8188859985AAE0AA2E86
:10233000BB24CC24DD24EE24FF2400E010E00E9426
:102340003D07290DE1E0291508F0E0E0380DF1E046
:10235000381508F0F0E0BE2FB30FE1E0B31708F036
:10236000E0E0FE2B470DE1E0471508F0E0E0AF2F7D
:10237000A40F31E0A41708F030E0E32B560D41E044
:10238000561508F040E01E2F150F31E0151708F024
:1023900030E0432B650D51E0651508F050E0042F47
:1023A000060F31E0061708F030E0532B740D41E0C2
:1023B000741508F040E0652F670F31E0671708F0EB
:1023C00030E0432B830D51E0831508F050E0480FB7
:1023D00031E0481708F030E0532B8981890F222E15
:1023E0003B2E4A2E512E602E762E842E982E950E40
:1023F0002A813B814C815D816E817F8188859985B1
:10240000FAE0AF2EBB24CC24DD24EE24FF2400E030
:1024100010E00E94C8002A833B834C835D836E8357
:102420007F83888799878A819B81892BEC818E2B7A
:10243000FD818F2B9E81892BEF818E2BF8858F2B31
:102440009985892B09F006CF1DC09101A201B30126
:10245000C401EAE0AE2EBB24CC24DD24EE24FF240C
:1024600000E010E00E943D07822F805D0E94B710BF
:102470009101A201B301C4010E94C80019012A01FF
:102480003B014C01E1E02E1601F73320F1F6442028
:10249000E1F65520D1F66620C1F67720B1F6882006
:1024A000A1F6992091F629960FB6F894DEBF0FBEDB
:1024B000CDBFCF91DF911F910F91FF90EF90DF90F3
:1024C000CF90BF90AF909F908F907F906F905F90D4
:1024D0004F903F902F9008951F93CF93DF93EC017F
:1024E00010E003C00E94B7101F5FFE01E10FF11D55
:1024F00080818823B9F7DF91CF911F910895DF93F1
:10250000CF93CDB7DEB761970FB6F894DEBF0FBE9D
:10251000CDBFDE011196E0E6F0E091E101900D9271
:102520009150E1F760E00E94A510CE0101960E9453
:102530006C1280ED97E00197F1F761960FB6F89471
:10254000DEBF0FBECDBFCF91DF9108950F931F93D4
:1025500081E26FEF0E942A0F88E161E00E94EE0D98
:102560008AE161E00E94EE0D89E161E00E94EE0DDA
:1025700084EF91E028EC30E0F9013197F1F7019711
:10258000D9F788E30E94801000ED17E0C801019799
:10259000F1F78CE00E948010C8010197F1F781E00B
:1025A0000E9480101F910F9108959F92AF92BF9249
:1025B000CF92DF92EF92FF920F931F93DF93CF930F
:1025C000CDB7DEB72E970FB6F894DEBF0FBECDBFE6
:1025D000982E10E0E8ECEE2EF12C892D6FEF0E9482
:1025E0003E0F88E893E1F7013197F1F70197D9F7AA
:1025F000892D60E00E943E0F88E893E1F701319752
:10260000F1F70197D9F71F5F133039F7DE011696FE
:10261000E4E8F1E089E001900D928150E1F78E014C
:102620000A5F1F4F78ECC72ED12CC801B02EA92EFF
:102630006EE0E62EF12CEC0EFD1E892DF801608176
:102640000E943E0F88E893E1F6013197F1F7019778
:10265000D9F70F5F1F4F0E151F0579F78B2D9A2D98
:10266000DC01EDE8F1E089E001900D928150E1F7A5
:102670008E010A5F1F4F58ECC52ED12CC801B02E19
:10268000A92E4FE0E42EF12CEC0EFD1E892DF80151
:1026900060810E943E0F88E893E1F6013197F1F7DF
:1026A0000197D9F70F5F1F4F0E151F0579F78B2D77
:1026B0009A2DDC01E6E9F1E089E001900D9281506C
:1026C000E1F78E010A5F1F4F38ECC32ED12C2FE0AB
:1026D000E22EF12CEC0EFD1E892DF80160810E9486
:1026E0003E0F88E893E1F6013197F1F70197D9F7AA
:1026F0000F5F1F4F0E151F0579F7DE011196EFE9E9
:10270000F1E085E001900D928150E1F78E010F5FBD
:102710001F4F98ECC92ED12C86E0E82EF12CEC0E40
:10272000FD1E892DF80160810E943E0F88E893E12B
:10273000F6013197F1F70197D9F70F5F1F4F0E158B
:102740001F0579F72E960FB6F894DEBF0FBECDBFEA
:10275000CF91DF911F910F91FF90EF90DF90CF907D
:10276000BF90AF909F900895803220F461E00E9466
:10277000640E08956FEF0E943E0F0895803220F49A
:1027800060E00E94640E089560E00E943E0F08958C
:10279000803220F461E00E94EE0D08956FEF0E94F8
:1027A0002A0F0895843009F47CC0853058F48130B4
:1027B00099F18130D0F0823009F449C0833009F0BA
:1027C000BFC058C0873009F489C0883038F48530DC
:1027D00009F476C0863009F0B3C079C0883009F4B6
:1027E00080C0893009F0ACC08FC088E160E00E94F1
:1027F000640E89E160E00E94640E8AE160E00E945C
:10280000640E8BE160E00E94640E8CE160E00E9447
:10281000640E8DE160E016C088E161E00E94640E04
:1028200089E160E00E94640E8AE160E00E94640E2B
:102830008BE161E00E94640E8CE161E00E94640E15
:102840008DE161E00E94640E8EE161E077C088E175
:1028500060E00E94640E89E160E00E94640E8AE1FB
:1028600061E00E94640E8BE160E00E94640E8CE1E6
:1028700060E012C088E160E00E94640E89E160E0DF
:102880000E94640E8AE160E00E94640E8BE160E0C9
:102890000E94640E8CE161E00E94640E8DE161E0B3
:1028A00049C088E161E00E94640E89E160E00E9415
:1028B000640E8AE160E00E94640E8BE161E032C048
:1028C00088E160E00E94640E89E161E023C088E154
:1028D00060E00E94640E89E161E009C088E160E087
:1028E0009DCF88E160E00E94640E89E160E00E9473
:1028F000640E8AE160E00E94640E8BE160E00E9459
:10290000640E8CE160E012C088E160E00E94640E19
:1029100089E160E00E94640E8AE160E00E94640E3A
:102920008BE160E00E94640E8CE161E00E94640E25
:102930008DE160E00E94640E8EE160E00E94640E12
:102940008FE161E00E94640E80ED97E00197F1F75E
:1029500008951F93CF93DF9310E0C8ECD0E0812F50
:102960000E94D21380E197E2FE013197F1F70197BF
:10297000D9F71F5F1A3099F7DF91CF911F91089512
:102980001F93CF93DF9319E0C8ECD0E0812F0E9412
:10299000D21380E197E2FE013197F1F70197D9F761
:1029A0001150A0F7DF91CF911F91089587E161E069
:1029B0000E94EE0D87E161E00E94640E88E161E013
:1029C0000E94EE0D89E161E00E94EE0D8AE161E076
:1029D0000E94EE0D8BE161E00E94EE0D8CE161E062
:1029E0000E94EE0D8DE161E00E94EE0D8EE161E04E
:1029F0000E94EE0D8FE161E00E94EE0D08950E94AD
:102A0000520F08951F93182F60E00E942A0F812F04
:102A10006FEF0E943E0F1F9108950E94DA0E0895F5
:102A20001F93182F60E00E94EE0D812F61E00E943D
:102A3000640E1F910895991B79E004C0991F9617A1
:102A400008F0961B881F7A95C9F780950895629FB4
:102A5000D001739FF001829FE00DF11D649FE00D96
:102A6000F11D929FF00D839FF00D749FF00D659FF7
:102A7000F00D9927729FB00DE11DF91F639FB00DF6
:102A8000E11DF91FBD01CF0111240895A1E21A2E05
:102A9000AA1BBB1BFD010DC0AA1FBB1FEE1FFF1F02
:102AA000A217B307E407F50720F0A21BB30BE40B52
:102AB000F50B661F771F881F991F1A9469F7609599
:102AC0007095809590959B01AC01BD01CF01089553
:102AD0002F923F924F925F926F927F928F929F922E
:102AE000AF92BF92CF92DF92EF92FF920F931F931C
:102AF000CF93DF93CDB7DEB7CA1BDB0B0FB6F894CD
:102B0000DEBF0FBECDBF09942A88398848885F840C
:102B10006E847D848C849B84AA84B984C884DF807D
:102B2000EE80FD800C811B81AA81B981CE0FD11D61
:102B30000FB6F894DEBF0FBECDBFED010895F89437
:022B4000FFCFC5
:102B42002020202020202020202020202020202083
:102B52000000010202030303030404040404040446
:102B62000405050505050505050505050505050514
:102B720005060606060606060606060606060606F4
:102B820006060606060606060606060606060606E3
:102B920006070707070707070707070707070707C4
:102BA20007070707070707070707070707070707B3
:102BB20007070707070707070707070707070707A3
:102BC2000707070707070707070707070707070793
:102BD2000708080808080808080808080808080874
:102BE2000808080808080808080808080808080863
:102BF2000808080808080808080808080808080853
:102C02000808080808080808080808080808080842
:102C12000808080808080808080808080808080832
:102C22000808080808080808080808080808080822
:102C32000808080808080808080808080808080812
:102C42000808080808080808080808080808080802
:102C5200080102030405060708090A0B0C141516DD
:102C62001713121101020408102040800000010312
:102C7200070F1F3F7FFFFF7F3F1F0F070301001852
:042C82003C7EFF0095
:00000001FF
